:100000000C943A000C947B010C947B010C947B01C2
:100010000C947B010C947B010C947B010C947B0170
:100020000C947B010C947B010C947B010C947B0160
:100030000C947B010C947B010C947B010C947B0150
:100040000C947B010C947B010C947B010C947B0140
:100050000C947B010C947B010C947B010C947B0130
:100060000C947B010C947B0101000111000304013D
:100070001101128011241FBECFEFD8E0DEBFCDBF2B
:10008000E8E6F0E040E017C0B591A59135912591E3
:10009000059107FD0CC095918591EF01F92FE82F8F
:1000A00005900D92A217B307D9F7FE0104C01D9267
:1000B000A217B307E1F7E437F40731F70E94DC0039
:0800C0000C945A01F894FFCFE3
:1000C8008AB18F678AB98BB180788BB98BB18E7FF3
:1000D8008BB983E00E94B3000E9413018FE39FE174
:1000E8000197F1F700C0000083E00E94B3000E946E
:1000F800130190EF9A95F1F783E00E94B3000E94F4
:10010800130182E00E94B3000E94130182E00E9462
:10011800B3000E9413018CE00E94B3000E941301F7
:1001280080E00E94B3000E94130188E00E94B3009F
:100138000E94130180E00E94B3000E94130181E035
:100148000E94B3000E94130180E00E94B3000E9445
:0E015800130186E00E94B3000E941301089577
:1001660080FF03C09BB198609BB981FF03C09BB120
:1001760090619BB982FF03C09BB190629BB983FFDC
:1001860003C09BB190649BB980FD03C09BB1977F70
:100196009BB981FD03C09BB19F7E9BB982FD03C0C5
:1001A6009BB19F7D9BB983FD03C08BB18F7B8BB9C0
:0201B6000895AA
:1001B8000E9464000E9465010E946B010E946F0109
:1001C8000E9473010E94770167E0809111010E94EB
:1001D8004C0162E08CE091E00E94FD0063E08091B8
:1001E80010010E944C016BE080E091E00E94FD004C
:0201F800FFCF37
:1001FA000F931F93CF93DF938C01D62FC0E007C0D4
:10020A00F801EC0FF11D80810E943901CF5FCD17F3
:0C021A00B8F3DF91CF911F910F91089570
:100226008BB184608BB98FEC97E00197F1F700C032
:1002360000008BB18B7F8BB98FEC97E00197F1F7BC
:0602460000C00000089555
:10024C00CF93C82F8BB18E7F8BB98C2F82958F70EB
:10025C000E94B3000E9413018C2F0E94B3000E94D5
:06026C001301CF9108957B
:10027200CF93C82F8BB181608BB98C2F82958F70F1
:100282000E94B3000E9413018C2F0E94B3000E94AF
:060292001301CF91089555
:10029800860F21E030E000900F0102C0220F331FCB
:0C02A8000A94E2F7822B0E9426010895C0
:1002B400EC010E9480010E947F01CE010E94810115
:0602C400CE010E947D0145
:0C02CA0081E00E9426010E946B01089553
:0802D60082E00E942601089558
:0802DE008CE00E942601089546
:0802E6008EE00E94260108953C
:0802EE0086E00E94260108953C
:0402F6000C94000064
:0402FA000E946200FC
:0202FE00089561
:0203000008955E
:0203020008955C
:0C030400456C656374726F6E6963610084
:030310004759004A
:0103130007E2
:0103140040A8
:00000001FF
